{
	"abi": [
		{
			"type": "constructor",
			"inputs": [],
			"stateMutability": "nonpayable"
		},
		{
			"type": "function",
			"name": "BURNER_ROLE",
			"inputs": [],
			"outputs": [
				{
					"name": "",
					"type": "bytes32",
					"internalType": "bytes32"
				}
			],
			"stateMutability": "view"
		},
		{
			"type": "function",
			"name": "CONTRACT_ADMIN_ROLE",
			"inputs": [],
			"outputs": [
				{
					"name": "",
					"type": "bytes32",
					"internalType": "bytes32"
				}
			],
			"stateMutability": "view"
		},
		{
			"type": "function",
			"name": "DEFAULT_ADMIN_ROLE",
			"inputs": [],
			"outputs": [
				{
					"name": "",
					"type": "bytes32",
					"internalType": "bytes32"
				}
			],
			"stateMutability": "view"
		},
		{
			"type": "function",
			"name": "DOMAIN_SEPARATOR",
			"inputs": [],
			"outputs": [
				{
					"name": "",
					"type": "bytes32",
					"internalType": "bytes32"
				}
			],
			"stateMutability": "view"
		},
		{
			"type": "function",
			"name": "MINTER_ROLE",
			"inputs": [],
			"outputs": [
				{
					"name": "",
					"type": "bytes32",
					"internalType": "bytes32"
				}
			],
			"stateMutability": "view"
		},
		{
			"type": "function",
			"name": "PAUSER_ROLE",
			"inputs": [],
			"outputs": [
				{
					"name": "",
					"type": "bytes32",
					"internalType": "bytes32"
				}
			],
			"stateMutability": "view"
		},
		{
			"type": "function",
			"name": "RECOVERY_ROLE",
			"inputs": [],
			"outputs": [
				{
					"name": "",
					"type": "bytes32",
					"internalType": "bytes32"
				}
			],
			"stateMutability": "view"
		},
		{
			"type": "function",
			"name": "SALVAGE_ROLE",
			"inputs": [],
			"outputs": [
				{
					"name": "",
					"type": "bytes32",
					"internalType": "bytes32"
				}
			],
			"stateMutability": "view"
		},
		{
			"type": "function",
			"name": "UPGRADER_ROLE",
			"inputs": [],
			"outputs": [
				{
					"name": "",
					"type": "bytes32",
					"internalType": "bytes32"
				}
			],
			"stateMutability": "view"
		},
		{
			"type": "function",
			"name": "accessRegistry",
			"inputs": [],
			"outputs": [
				{
					"name": "",
					"type": "address",
					"internalType": "contract IAccessRegistry"
				}
			],
			"stateMutability": "view"
		},
		{
			"type": "function",
			"name": "accessRegistryUpdate",
			"inputs": [
				{
					"name": "_accessRegistry",
					"type": "address",
					"internalType": "address"
				}
			],
			"outputs": [],
			"stateMutability": "nonpayable"
		},
		{
			"type": "function",
			"name": "allowance",
			"inputs": [
				{
					"name": "owner",
					"type": "address",
					"internalType": "address"
				},
				{
					"name": "spender",
					"type": "address",
					"internalType": "address"
				}
			],
			"outputs": [
				{
					"name": "",
					"type": "uint256",
					"internalType": "uint256"
				}
			],
			"stateMutability": "view"
		},
		{
			"type": "function",
			"name": "approve",
			"inputs": [
				{
					"name": "spender",
					"type": "address",
					"internalType": "address"
				},
				{
					"name": "amount",
					"type": "uint256",
					"internalType": "uint256"
				}
			],
			"outputs": [
				{
					"name": "",
					"type": "bool",
					"internalType": "bool"
				}
			],
			"stateMutability": "nonpayable"
		},
		{
			"type": "function",
			"name": "balanceOf",
			"inputs": [
				{
					"name": "account",
					"type": "address",
					"internalType": "address"
				}
			],
			"outputs": [
				{
					"name": "",
					"type": "uint256",
					"internalType": "uint256"
				}
			],
			"stateMutability": "view"
		},
		{
			"type": "function",
			"name": "burn",
			"inputs": [
				{
					"name": "amount",
					"type": "uint256",
					"internalType": "uint256"
				}
			],
			"outputs": [],
			"stateMutability": "nonpayable"
		},
		{
			"type": "function",
			"name": "contractUri",
			"inputs": [],
			"outputs": [
				{
					"name": "",
					"type": "string",
					"internalType": "string"
				}
			],
			"stateMutability": "view"
		},
		{
			"type": "function",
			"name": "contractUriUpdate",
			"inputs": [
				{
					"name": "_uri",
					"type": "string",
					"internalType": "string"
				}
			],
			"outputs": [],
			"stateMutability": "nonpayable"
		},
		{
			"type": "function",
			"name": "decimals",
			"inputs": [],
			"outputs": [
				{
					"name": "",
					"type": "uint8",
					"internalType": "uint8"
				}
			],
			"stateMutability": "view"
		},
		{
			"type": "function",
			"name": "decreaseAllowance",
			"inputs": [
				{
					"name": "spender",
					"type": "address",
					"internalType": "address"
				},
				{
					"name": "subtractedValue",
					"type": "uint256",
					"internalType": "uint256"
				}
			],
			"outputs": [
				{
					"name": "",
					"type": "bool",
					"internalType": "bool"
				}
			],
			"stateMutability": "nonpayable"
		},
		{
			"type": "function",
			"name": "eip712Domain",
			"inputs": [],
			"outputs": [
				{
					"name": "fields",
					"type": "bytes1",
					"internalType": "bytes1"
				},
				{
					"name": "name",
					"type": "string",
					"internalType": "string"
				},
				{
					"name": "version",
					"type": "string",
					"internalType": "string"
				},
				{
					"name": "chainId",
					"type": "uint256",
					"internalType": "uint256"
				},
				{
					"name": "verifyingContract",
					"type": "address",
					"internalType": "address"
				},
				{
					"name": "salt",
					"type": "bytes32",
					"internalType": "bytes32"
				},
				{
					"name": "extensions",
					"type": "uint256[]",
					"internalType": "uint256[]"
				}
			],
			"stateMutability": "view"
		},
		{
			"type": "function",
			"name": "getRoleAdmin",
			"inputs": [
				{
					"name": "role",
					"type": "bytes32",
					"internalType": "bytes32"
				}
			],
			"outputs": [
				{
					"name": "",
					"type": "bytes32",
					"internalType": "bytes32"
				}
			],
			"stateMutability": "view"
		},
		{
			"type": "function",
			"name": "grantRole",
			"inputs": [
				{
					"name": "role",
					"type": "bytes32",
					"internalType": "bytes32"
				},
				{
					"name": "account",
					"type": "address",
					"internalType": "address"
				}
			],
			"outputs": [],
			"stateMutability": "nonpayable"
		},
		{
			"type": "function",
			"name": "hasRole",
			"inputs": [
				{
					"name": "role",
					"type": "bytes32",
					"internalType": "bytes32"
				},
				{
					"name": "account",
					"type": "address",
					"internalType": "address"
				}
			],
			"outputs": [
				{
					"name": "",
					"type": "bool",
					"internalType": "bool"
				}
			],
			"stateMutability": "view"
		},
		{
			"type": "function",
			"name": "increaseAllowance",
			"inputs": [
				{
					"name": "spender",
					"type": "address",
					"internalType": "address"
				},
				{
					"name": "addedValue",
					"type": "uint256",
					"internalType": "uint256"
				}
			],
			"outputs": [
				{
					"name": "",
					"type": "bool",
					"internalType": "bool"
				}
			],
			"stateMutability": "nonpayable"
		},
		{
			"type": "function",
			"name": "initialize",
			"inputs": [
				{
					"name": "_name",
					"type": "string",
					"internalType": "string"
				},
				{
					"name": "_symbol",
					"type": "string",
					"internalType": "string"
				},
				{
					"name": "defaultAdmin",
					"type": "address",
					"internalType": "address"
				},
				{
					"name": "minter",
					"type": "address",
					"internalType": "address"
				},
				{
					"name": "pauser",
					"type": "address",
					"internalType": "address"
				}
			],
			"outputs": [],
			"stateMutability": "nonpayable"
		},
		{
			"type": "function",
			"name": "mint",
			"inputs": [
				{
					"name": "to",
					"type": "address",
					"internalType": "address"
				},
				{
					"name": "amount",
					"type": "uint256",
					"internalType": "uint256"
				}
			],
			"outputs": [],
			"stateMutability": "nonpayable"
		},
		{
			"type": "function",
			"name": "multicall",
			"inputs": [
				{
					"name": "data",
					"type": "bytes[]",
					"internalType": "bytes[]"
				}
			],
			"outputs": [
				{
					"name": "results",
					"type": "bytes[]",
					"internalType": "bytes[]"
				}
			],
			"stateMutability": "nonpayable"
		},
		{
			"type": "function",
			"name": "name",
			"inputs": [],
			"outputs": [
				{
					"name": "",
					"type": "string",
					"internalType": "string"
				}
			],
			"stateMutability": "view"
		},
		{
			"type": "function",
			"name": "nonces",
			"inputs": [
				{
					"name": "owner",
					"type": "address",
					"internalType": "address"
				}
			],
			"outputs": [
				{
					"name": "",
					"type": "uint256",
					"internalType": "uint256"
				}
			],
			"stateMutability": "view"
		},
		{
			"type": "function",
			"name": "pause",
			"inputs": [],
			"outputs": [],
			"stateMutability": "nonpayable"
		},
		{
			"type": "function",
			"name": "paused",
			"inputs": [],
			"outputs": [
				{
					"name": "",
					"type": "bool",
					"internalType": "bool"
				}
			],
			"stateMutability": "view"
		},
		{
			"type": "function",
			"name": "permit",
			"inputs": [
				{
					"name": "owner",
					"type": "address",
					"internalType": "address"
				},
				{
					"name": "spender",
					"type": "address",
					"internalType": "address"
				},
				{
					"name": "value",
					"type": "uint256",
					"internalType": "uint256"
				},
				{
					"name": "deadline",
					"type": "uint256",
					"internalType": "uint256"
				},
				{
					"name": "v",
					"type": "uint8",
					"internalType": "uint8"
				},
				{
					"name": "r",
					"type": "bytes32",
					"internalType": "bytes32"
				},
				{
					"name": "s",
					"type": "bytes32",
					"internalType": "bytes32"
				}
			],
			"outputs": [],
			"stateMutability": "nonpayable"
		},
		{
			"type": "function",
			"name": "proxiableUUID",
			"inputs": [],
			"outputs": [
				{
					"name": "",
					"type": "bytes32",
					"internalType": "bytes32"
				}
			],
			"stateMutability": "view"
		},
		{
			"type": "function",
			"name": "recoverTokens",
			"inputs": [
				{
					"name": "account",
					"type": "address",
					"internalType": "address"
				},
				{
					"name": "amount",
					"type": "uint256",
					"internalType": "uint256"
				}
			],
			"outputs": [],
			"stateMutability": "nonpayable"
		},
		{
			"type": "function",
			"name": "renounceRole",
			"inputs": [
				{
					"name": "role",
					"type": "bytes32",
					"internalType": "bytes32"
				},
				{
					"name": "account",
					"type": "address",
					"internalType": "address"
				}
			],
			"outputs": [],
			"stateMutability": "nonpayable"
		},
		{
			"type": "function",
			"name": "revokeRole",
			"inputs": [
				{
					"name": "role",
					"type": "bytes32",
					"internalType": "bytes32"
				},
				{
					"name": "account",
					"type": "address",
					"internalType": "address"
				}
			],
			"outputs": [],
			"stateMutability": "nonpayable"
		},
		{
			"type": "function",
			"name": "salvageERC20",
			"inputs": [
				{
					"name": "token",
					"type": "address",
					"internalType": "contract IERC20Upgradeable"
				},
				{
					"name": "amount",
					"type": "uint256",
					"internalType": "uint256"
				}
			],
			"outputs": [],
			"stateMutability": "nonpayable"
		},
		{
			"type": "function",
			"name": "salvageGas",
			"inputs": [
				{
					"name": "amount",
					"type": "uint256",
					"internalType": "uint256"
				}
			],
			"outputs": [],
			"stateMutability": "nonpayable"
		},
		{
			"type": "function",
			"name": "supportsInterface",
			"inputs": [
				{
					"name": "interfaceId",
					"type": "bytes4",
					"internalType": "bytes4"
				}
			],
			"outputs": [
				{
					"name": "",
					"type": "bool",
					"internalType": "bool"
				}
			],
			"stateMutability": "view"
		},
		{
			"type": "function",
			"name": "symbol",
			"inputs": [],
			"outputs": [
				{
					"name": "",
					"type": "string",
					"internalType": "string"
				}
			],
			"stateMutability": "view"
		},
		{
			"type": "function",
			"name": "totalSupply",
			"inputs": [],
			"outputs": [
				{
					"name": "",
					"type": "uint256",
					"internalType": "uint256"
				}
			],
			"stateMutability": "view"
		},
		{
			"type": "function",
			"name": "transfer",
			"inputs": [
				{
					"name": "to",
					"type": "address",
					"internalType": "address"
				},
				{
					"name": "amount",
					"type": "uint256",
					"internalType": "uint256"
				}
			],
			"outputs": [
				{
					"name": "",
					"type": "bool",
					"internalType": "bool"
				}
			],
			"stateMutability": "nonpayable"
		},
		{
			"type": "function",
			"name": "transferFrom",
			"inputs": [
				{
					"name": "from",
					"type": "address",
					"internalType": "address"
				},
				{
					"name": "to",
					"type": "address",
					"internalType": "address"
				},
				{
					"name": "amount",
					"type": "uint256",
					"internalType": "uint256"
				}
			],
			"outputs": [
				{
					"name": "",
					"type": "bool",
					"internalType": "bool"
				}
			],
			"stateMutability": "nonpayable"
		},
		{
			"type": "function",
			"name": "unpause",
			"inputs": [],
			"outputs": [],
			"stateMutability": "nonpayable"
		},
		{
			"type": "function",
			"name": "upgradeTo",
			"inputs": [
				{
					"name": "newImplementation",
					"type": "address",
					"internalType": "address"
				}
			],
			"outputs": [],
			"stateMutability": "nonpayable"
		},
		{
			"type": "function",
			"name": "upgradeToAndCall",
			"inputs": [
				{
					"name": "newImplementation",
					"type": "address",
					"internalType": "address"
				},
				{
					"name": "data",
					"type": "bytes",
					"internalType": "bytes"
				}
			],
			"outputs": [],
			"stateMutability": "payable"
		},
		{
			"type": "function",
			"name": "version",
			"inputs": [],
			"outputs": [
				{
					"name": "",
					"type": "uint64",
					"internalType": "uint64"
				}
			],
			"stateMutability": "view"
		},
		{
			"type": "event",
			"name": "AccessRegistryUpdated",
			"inputs": [
				{
					"name": "caller",
					"type": "address",
					"indexed": true,
					"internalType": "address"
				},
				{
					"name": "oldAccessRegistry",
					"type": "address",
					"indexed": true,
					"internalType": "address"
				},
				{
					"name": "newAccessRegistry",
					"type": "address",
					"indexed": true,
					"internalType": "address"
				}
			],
			"anonymous": false
		},
		{
			"type": "event",
			"name": "AdminChanged",
			"inputs": [
				{
					"name": "previousAdmin",
					"type": "address",
					"indexed": false,
					"internalType": "address"
				},
				{
					"name": "newAdmin",
					"type": "address",
					"indexed": false,
					"internalType": "address"
				}
			],
			"anonymous": false
		},
		{
			"type": "event",
			"name": "Approval",
			"inputs": [
				{
					"name": "owner",
					"type": "address",
					"indexed": true,
					"internalType": "address"
				},
				{
					"name": "spender",
					"type": "address",
					"indexed": true,
					"internalType": "address"
				},
				{
					"name": "value",
					"type": "uint256",
					"indexed": false,
					"internalType": "uint256"
				}
			],
			"anonymous": false
		},
		{
			"type": "event",
			"name": "BeaconUpgraded",
			"inputs": [
				{
					"name": "beacon",
					"type": "address",
					"indexed": true,
					"internalType": "address"
				}
			],
			"anonymous": false
		},
		{
			"type": "event",
			"name": "ContractUriUpdated",
			"inputs": [
				{
					"name": "caller",
					"type": "address",
					"indexed": true,
					"internalType": "address"
				},
				{
					"name": "oldUri",
					"type": "string",
					"indexed": false,
					"internalType": "string"
				},
				{
					"name": "newUri",
					"type": "string",
					"indexed": false,
					"internalType": "string"
				}
			],
			"anonymous": false
		},
		{
			"type": "event",
			"name": "EIP712DomainChanged",
			"inputs": [],
			"anonymous": false
		},
		{
			"type": "event",
			"name": "GasTokenSalvaged",
			"inputs": [
				{
					"name": "caller",
					"type": "address",
					"indexed": true,
					"internalType": "address"
				},
				{
					"name": "amount",
					"type": "uint256",
					"indexed": true,
					"internalType": "uint256"
				}
			],
			"anonymous": false
		},
		{
			"type": "event",
			"name": "Initialized",
			"inputs": [
				{
					"name": "version",
					"type": "uint8",
					"indexed": false,
					"internalType": "uint8"
				}
			],
			"anonymous": false
		},
		{
			"type": "event",
			"name": "Paused",
			"inputs": [
				{
					"name": "account",
					"type": "address",
					"indexed": false,
					"internalType": "address"
				}
			],
			"anonymous": false
		},
		{
			"type": "event",
			"name": "RoleAdminChanged",
			"inputs": [
				{
					"name": "role",
					"type": "bytes32",
					"indexed": true,
					"internalType": "bytes32"
				},
				{
					"name": "previousAdminRole",
					"type": "bytes32",
					"indexed": true,
					"internalType": "bytes32"
				},
				{
					"name": "newAdminRole",
					"type": "bytes32",
					"indexed": true,
					"internalType": "bytes32"
				}
			],
			"anonymous": false
		},
		{
			"type": "event",
			"name": "RoleGranted",
			"inputs": [
				{
					"name": "role",
					"type": "bytes32",
					"indexed": true,
					"internalType": "bytes32"
				},
				{
					"name": "account",
					"type": "address",
					"indexed": true,
					"internalType": "address"
				},
				{
					"name": "sender",
					"type": "address",
					"indexed": true,
					"internalType": "address"
				}
			],
			"anonymous": false
		},
		{
			"type": "event",
			"name": "RoleRevoked",
			"inputs": [
				{
					"name": "role",
					"type": "bytes32",
					"indexed": true,
					"internalType": "bytes32"
				},
				{
					"name": "account",
					"type": "address",
					"indexed": true,
					"internalType": "address"
				},
				{
					"name": "sender",
					"type": "address",
					"indexed": true,
					"internalType": "address"
				}
			],
			"anonymous": false
		},
		{
			"type": "event",
			"name": "TokenSalvaged",
			"inputs": [
				{
					"name": "caller",
					"type": "address",
					"indexed": true,
					"internalType": "address"
				},
				{
					"name": "token",
					"type": "address",
					"indexed": true,
					"internalType": "address"
				},
				{
					"name": "amount",
					"type": "uint256",
					"indexed": true,
					"internalType": "uint256"
				}
			],
			"anonymous": false
		},
		{
			"type": "event",
			"name": "TokensRecovered",
			"inputs": [
				{
					"name": "caller",
					"type": "address",
					"indexed": true,
					"internalType": "address"
				},
				{
					"name": "account",
					"type": "address",
					"indexed": true,
					"internalType": "address"
				},
				{
					"name": "amount",
					"type": "uint256",
					"indexed": false,
					"internalType": "uint256"
				}
			],
			"anonymous": false
		},
		{
			"type": "event",
			"name": "Transfer",
			"inputs": [
				{
					"name": "from",
					"type": "address",
					"indexed": true,
					"internalType": "address"
				},
				{
					"name": "to",
					"type": "address",
					"indexed": true,
					"internalType": "address"
				},
				{
					"name": "value",
					"type": "uint256",
					"indexed": false,
					"internalType": "uint256"
				}
			],
			"anonymous": false
		},
		{
			"type": "event",
			"name": "Unpaused",
			"inputs": [
				{
					"name": "account",
					"type": "address",
					"indexed": false,
					"internalType": "address"
				}
			],
			"anonymous": false
		},
		{
			"type": "event",
			"name": "Upgraded",
			"inputs": [
				{
					"name": "implementation",
					"type": "address",
					"indexed": true,
					"internalType": "address"
				}
			],
			"anonymous": false
		},
		{
			"type": "error",
			"name": "AccessRegistryNotSet",
			"inputs": []
		},
		{
			"type": "error",
			"name": "DefaultAdminError",
			"inputs": []
		},
		{
			"type": "error",
			"name": "ERC20InsufficientAllowance",
			"inputs": [
				{
					"name": "spender",
					"type": "address",
					"internalType": "address"
				},
				{
					"name": "allowance",
					"type": "uint256",
					"internalType": "uint256"
				},
				{
					"name": "needed",
					"type": "uint256",
					"internalType": "uint256"
				}
			]
		},
		{
			"type": "error",
			"name": "ERC20InsufficientBalance",
			"inputs": [
				{
					"name": "sender",
					"type": "address",
					"internalType": "address"
				},
				{
					"name": "balance",
					"type": "uint256",
					"internalType": "uint256"
				},
				{
					"name": "needed",
					"type": "uint256",
					"internalType": "uint256"
				}
			]
		},
		{
			"type": "error",
			"name": "ERC20InvalidApprover",
			"inputs": [
				{
					"name": "approver",
					"type": "address",
					"internalType": "address"
				}
			]
		},
		{
			"type": "error",
			"name": "ERC20InvalidReceiver",
			"inputs": [
				{
					"name": "receiver",
					"type": "address",
					"internalType": "address"
				}
			]
		},
		{
			"type": "error",
			"name": "ERC20InvalidSender",
			"inputs": [
				{
					"name": "sender",
					"type": "address",
					"internalType": "address"
				}
			]
		},
		{
			"type": "error",
			"name": "ERC20InvalidSpender",
			"inputs": [
				{
					"name": "spender",
					"type": "address",
					"internalType": "address"
				}
			]
		},
		{
			"type": "error",
			"name": "InvalidAddress",
			"inputs": []
		},
		{
			"type": "error",
			"name": "InvalidImplementation",
			"inputs": []
		},
		{
			"type": "error",
			"name": "RecoveryOnActiveAccount",
			"inputs": [
				{
					"name": "account",
					"type": "address",
					"internalType": "address"
				}
			]
		},
		{
			"type": "error",
			"name": "SalvageGasFailed",
			"inputs": []
		},
		{
			"type": "error",
			"name": "ZeroAmount",
			"inputs": []
		}
	],
	"bytecode": {
		"object": "0x60a06040523060805234801562000014575f80fd5b506200001f62000025565b620000e3565b5f54610100900460ff1615620000915760405162461bcd60e51b815260206004820152602760248201527f496e697469616c697a61626c653a20636f6e747261637420697320696e697469604482015266616c697a696e6760c81b606482015260840160405180910390fd5b5f5460ff90811614620000e1575f805460ff191660ff9081179091556040519081527f7f26b83ff96e1f2b6a682f133852f6798a09c465da95921460cefb38474024989060200160405180910390a15b565b608051613c1b620001185f395f8181610c1901528181610c5901528181610db601528181610df60152610e830152613c1b5ff3fe608060405260043610610280575f3560e01c80635c975abb11610155578063a9059cbb116100be578063d547741f11610078578063d547741f146107cd578063db0ed6a0146107ec578063dd62ed3e1461080b578063e63ab1e91461082a578063e6f29b051461085d578063f72c0d8b14610894575f80fd5b8063a9059cbb146106fd578063ac9650d81461071c578063c0e24d5e14610748578063c3d00d4e1461075c578063d505accf1461077b578063d53913931461079a575f80fd5b806384b0196e1161010f57806384b0196e1461063e57806388920d291461066557806391d148541461069857806395d89b41146106b7578063a217fddf146106cb578063a457c2d7146106de575f80fd5b80635c975abb146105815780636e1d21b01461059957806370a08231146105b85780637ecebe00146105ec5780637ffc5a5c1461060b5780638456cb591461062a575f80fd5b8063313ce567116101f75780633f4ba83a116101b15780633f4ba83a146104e857806340c10f19146104fc57806342966c681461051b5780634f1ef2861461053a57806352d1902d1461054d57806354fd4d5014610561575f80fd5b8063313ce5671461042957806331993a1c146104445780633644e5151461047757806336568abe1461048b5780633659cfe6146104aa57806339509351146104c9575f80fd5b80631da03312116102485780631da033121461033757806323b872dd1461036a578063248a9ca314610389578063282c51f3146103b85780632e13ae6e146103eb5780632f2ff15d1461040a575f80fd5b806301ffc9a714610284578063069c9fae146102b857806306fdde03146102d9578063095ea7b3146102fa57806318160ddd14610319575b5f80fd5b34801561028f575f80fd5b506102a361029e3660046131a7565b6108c7565b60405190151581526020015b60405180910390f35b3480156102c3575f80fd5b506102d76102d23660046131e2565b610970565b005b3480156102e4575f80fd5b506102ed610ad4565b6040516102af9190613259565b348015610305575f80fd5b506102a36103143660046131e2565b610b64565b348015610324575f80fd5b506035545b6040519081526020016102af565b348015610342575f80fd5b506103297f2ce8d04a9c35987429af538825cd2438cc5c5bb5dc427955f84daaa3ea10501681565b348015610375575f80fd5b506102a361038436600461326b565b610b7e565b348015610394575f80fd5b506103296103a33660046132a9565b5f90815261022a602052604090206001015490565b3480156103c3575f80fd5b506103297f3c11d16cbaffd01df69ce1c404f6340ee057498f5f00246190ea54220576a84881565b3480156103f6575f80fd5b506102d76104053660046132c0565b610ba7565b348015610415575f80fd5b506102d76104243660046132db565b610bbb565b348015610434575f80fd5b50604051601281526020016102af565b34801561044f575f80fd5b506103297f0acf805600123ef007091da3b3ffb39474074c656c127aa68cb0ffec232a8ff881565b348015610482575f80fd5b50610329610bd1565b348015610496575f80fd5b506102d76104a53660046132db565b610bdf565b3480156104b5575f80fd5b506102d76104c43660046132c0565b610c0f565b3480156104d4575f80fd5b506102a36104e33660046131e2565b610ce9565b3480156104f3575f80fd5b506102d7610cfc565b348015610507575f80fd5b506102d76105163660046131e2565b610d0e565b348015610526575f80fd5b506102d76105353660046132a9565b610d4c565b6102d761054836600461331d565b610dac565b348015610558575f80fd5b50610329610e77565b34801561056c575f80fd5b505f5460405160ff90911681526020016102af565b34801561058c575f80fd5b506101945460ff166102a3565b3480156105a4575f80fd5b506102d76105b33660046132a9565b610f28565b3480156105c3575f80fd5b506103296105d23660046132c0565b6001600160a01b03165f9081526033602052604090205490565b3480156105f7575f80fd5b506103296106063660046132c0565b610fe2565b348015610616575f80fd5b506102d7610625366004613420565b610fff565b348015610635575f80fd5b506102d7611045565b348015610649575f80fd5b50610652611055565b6040516102af979695949392919061345f565b348015610670575f80fd5b506103297f75afe8d9fedb4699bf07dc7bcb33fe609a84a99adfab7076931f0d93228085bb81565b3480156106a3575f80fd5b506102a36106b23660046132db565b6110ee565b3480156106c2575f80fd5b506102ed611119565b3480156106d6575f80fd5b506103295f81565b3480156106e9575f80fd5b506102a36106f83660046131e2565b611128565b348015610708575f80fd5b506102a36107173660046131e2565b61113b565b348015610727575f80fd5b5061073b6107363660046134f3565b611159565b6040516102af9190613562565b348015610753575f80fd5b506102ed61124c565b348015610767575f80fd5b506102d76107763660046131e2565b6112d9565b348015610786575f80fd5b506102d76107953660046135c2565b61134c565b3480156107a5575f80fd5b506103297f9f2df0fed2c77648de5860a4cc508cd0818c85b8b8a1ab4ceeef8d981c8956a681565b3480156107d8575f80fd5b506102d76107e73660046132db565b61136c565b3480156107f7575f80fd5b506102d7610806366004613633565b6113b2565b348015610816575f80fd5b506103296108253660046136d5565b61165e565b348015610835575f80fd5b506103297f65d7a28e3265b37a6474929f336521b332c1681b933f6cb9f3376673440d862a81565b348015610868575f80fd5b5060cc5461087c906001600160a01b031681565b6040516001600160a01b0390911681526020016102af565b34801561089f575f80fd5b506103297f189ab7a9244df0848122154315af71fe140f3db0fe014031783b0946b8c9d2e381565b5f6001600160e01b031982166336372b0760e01b14806108f757506001600160e01b0319821663a219a02560e01b145b8061090a57506001600160e01b03198216155b8061092557506001600160e01b031982166352d1902d60e01b145b8061094057506001600160e01b03198216634ec7fbed60e11b145b8061095b57506001600160e01b031982166342580cb760e11b145b8061096a575061096a82611688565b92915050565b7f0acf805600123ef007091da3b3ffb39474074c656c127aa68cb0ffec232a8ff861099a816116bc565b815f036109ba57604051631f2a200560e01b815260040160405180910390fd5b60cc546001600160a01b03166109e35760405163d582591b60e01b815260040160405180910390fd5b60cc546001600160a01b031663eefb7e9a84335f366040518563ffffffff1660e01b8152600401610a179493929190613701565b602060405180830381865afa158015610a32573d5f803e3d5ffd5b505050506040513d601f19601f82011682018060405250810190610a56919061374b565b15610a8457604051636c480add60e01b81526001600160a01b03841660048201526024015b60405180910390fd5b6040518281526001600160a01b0384169033907f401f439d865a766757ec78675925bd67198d5e78805aa41691b34b5d6a6cbbe69060200160405180910390a3610acf8333846116c6565b505050565b606060368054610ae39061376a565b80601f0160208091040260200160405190810160405280929190818152602001828054610b0f9061376a565b8015610b5a5780601f10610b3157610100808354040283529160200191610b5a565b820191905f5260205f20905b815481529060010190602001808311610b3d57829003601f168201915b5050505050905090565b5f610b6d61187c565b610b7783836118c3565b9392505050565b5f610b8a8460016118da565b610b94835f6118da565b610b9f8484846119b0565b949350505050565b610baf6119d3565b610bb881611a05565b50565b610bc3611b02565b610bcd8282611b0a565b5050565b5f610bda611b2f565b905090565b81610bfd57604051630461f45f60e11b815260040160405180910390fd5b610c05611b02565b610bcd8282611b38565b6001600160a01b037f0000000000000000000000000000000000000000000000000000000000000000163003610c575760405162461bcd60e51b8152600401610a7b9061379c565b7f00000000000000000000000000000000000000000000000000000000000000006001600160a01b0316610c9f5f80516020613b9f833981519152546001600160a01b031690565b6001600160a01b031614610cc55760405162461bcd60e51b8152600401610a7b906137e8565b610cce81611bb2565b604080515f80825260208201909252610bb891839190611bdc565b5f610cf261187c565b610b778383611d46565b610d04611d67565b610d0c611d91565b565b7f9f2df0fed2c77648de5860a4cc508cd0818c85b8b8a1ab4ceeef8d981c8956a6610d38816116bc565b610d42835f6118da565b610acf8383611de4565b7f3c11d16cbaffd01df69ce1c404f6340ee057498f5f00246190ea54220576a848610d76816116bc565b815f03610d9657604051631f2a200560e01b815260040160405180910390fd5b610da2335b60016118da565b610bcd3383611eae565b6001600160a01b037f0000000000000000000000000000000000000000000000000000000000000000163003610df45760405162461bcd60e51b8152600401610a7b9061379c565b7f00000000000000000000000000000000000000000000000000000000000000006001600160a01b0316610e3c5f80516020613b9f833981519152546001600160a01b031690565b6001600160a01b031614610e625760405162461bcd60e51b8152600401610a7b906137e8565b610e6b82611bb2565b610bcd82826001611bdc565b5f306001600160a01b037f00000000000000000000000000000000000000000000000000000000000000001614610f165760405162461bcd60e51b815260206004820152603860248201527f555550535570677261646561626c653a206d757374206e6f742062652063616c60448201527f6c6564207468726f7567682064656c656761746563616c6c00000000000000006064820152608401610a7b565b505f80516020613b9f83398151915290565b805f03610f4857604051631f2a200560e01b815260040160405180910390fd5b610f50611feb565b604051819033907f6fe86159012c6b167b88e7b30e7c8ebe172ed05c753231df050bf60e4faf724a905f90a36040515f90339083908381818185875af1925050503d805f8114610fbb576040519150601f19603f3d011682016040523d82523d5f602084013e610fc0565b606091505b5050905080610bcd576040516382daa1e760e01b815260040160405180910390fd5b6001600160a01b0381165f9081526099602052604081205461096a565b6110076119d3565b610bcd82828080601f0160208091040260200160405190810160405280939291908181526020018383808284375f9201919091525061201d92505050565b61104d611d67565b610d0c61206f565b5f6060805f805f60606065545f801b1480156110715750606654155b6110b55760405162461bcd60e51b81526020600482015260156024820152741152540dcc4c8e88155b9a5b9a5d1a585b1a5e9959605a1b6044820152606401610a7b565b6110bd6120ad565b6110c56120bc565b604080515f80825260208201909252600f60f81b9b939a50919850469750309650945092509050565b5f91825261022a602090815260408084206001600160a01b0393909316845291905290205460ff1690565b606060378054610ae39061376a565b5f61113161187c565b610b7783836120cb565b5f61114533610d9b565b61114f835f6118da565b610b778383612145565b60608167ffffffffffffffff81111561117457611174613309565b6040519080825280602002602001820160405280156111a757816020015b60608152602001906001900390816111925790505b5090505f5b8281101561124557611215308585848181106111ca576111ca613834565b90506020028101906111dc9190613848565b8080601f0160208091040260200160405190810160405280939291908181526020018383808284375f9201919091525061215292505050565b82828151811061122757611227613834565b6020026020010181905250808061123d9061389f565b9150506111ac565b5092915050565b610162805461125a9061376a565b80601f01602080910402602001604051908101604052809291908181526020018280546112869061376a565b80156112d15780601f106112a8576101008083540402835291602001916112d1565b820191905f5260205f20905b8154815290600101906020018083116112b457829003601f168201915b505050505081565b805f036112f957604051631f2a200560e01b815260040160405180910390fd5b611301611feb565b60405181906001600160a01b0384169033907fca9a684d22747bbed3bef704e16858bfa9ac8f5af2d80c70455b298bd7d8d239905f90a4610bcd6001600160a01b0383163383612177565b61135461187c565b611363878787878787876121c9565b50505050505050565b8115801561138257506001600160a01b03811633145b156113a057604051630461f45f60e11b815260040160405180910390fd5b6113a8611b02565b610bcd828261232a565b5f54610100900460ff16158080156113d057505f54600160ff909116105b806113e95750303b1580156113e957505f5460ff166001145b61144c5760405162461bcd60e51b815260206004820152602e60248201527f496e697469616c697a61626c653a20636f6e747261637420697320616c72656160448201526d191e481a5b9a5d1a585b1a5e995960921b6064820152608401610a7b565b5f805460ff19166001179055801561146d575f805461ff0019166101001790555b6001600160a01b038416158061148a57506001600160a01b038216155b8061149c57506001600160a01b038316155b156114ba5760405163e6c4247b60e01b815260040160405180910390fd5b6114c261234f565b61153388888080601f0160208091040260200160405190810160405280939291908181526020018383808284375f9201919091525050604080516020601f8c018190048102820181019092528a815292508a91508990819084018382808284375f9201919091525061237592505050565b61157188888080601f0160208091040260200160405190810160405280939291908181526020018383808284375f920191909152506123a592505050565b61157961234f565b6115825f6123ee565b61158a61234f565b6115a160405180602001604052805f815250612414565b6115a9612443565b6115b1612471565b6115bb5f8561249f565b6115e57f9f2df0fed2c77648de5860a4cc508cd0818c85b8b8a1ab4ceeef8d981c8956a68461249f565b61160f7f65d7a28e3265b37a6474929f336521b332c1681b933f6cb9f3376673440d862a8361249f565b8015611654575f805461ff0019169055604051600181527f7f26b83ff96e1f2b6a682f133852f6798a09c465da95921460cefb38474024989060200160405180910390a15b5050505050505050565b6001600160a01b039182165f90815260346020908152604080832093909416825291909152205490565b5f6001600160e01b03198216637965db0b60e01b148061096a57506301ffc9a760e01b6001600160e01b031983161461096a565b610bb88133612525565b6001600160a01b03831661172a5760405162461bcd60e51b815260206004820152602560248201527f45524332303a207472616e736665722066726f6d20746865207a65726f206164604482015264647265737360d81b6064820152608401610a7b565b6001600160a01b03821661178c5760405162461bcd60e51b815260206004820152602360248201527f45524332303a207472616e7366657220746f20746865207a65726f206164647260448201526265737360e81b6064820152608401610a7b565b61179783838361257e565b6001600160a01b0383165f908152603360205260409020548181101561180e5760405162461bcd60e51b815260206004820152602660248201527f45524332303a207472616e7366657220616d6f756e7420657863656564732062604482015265616c616e636560d01b6064820152608401610a7b565b6001600160a01b038085165f8181526033602052604080822086860390559286168082529083902080548601905591517fddf252ad1be2c89b69c2b068fc378daa952ba7f163c4a11628f55a4df523b3ef9061186d9086815260200190565b60405180910390a35b50505050565b6101945460ff1615610d0c5760405162461bcd60e51b815260206004820152601060248201526f14185d5cd8589b194e881c185d5cd95960821b6044820152606401610a7b565b5f336118d0818585612586565b5060019392505050565b60cc546001600160a01b031615610bcd5760cc546001600160a01b031663eefb7e9a83335f366040518563ffffffff1660e01b815260040161191f9493929190613701565b602060405180830381865afa15801561193a573d5f803e3d5ffd5b505050506040513d601f19601f8201168201806040525081019061195e919061374b565b610bcd57801561198c57604051634b637e8f60e11b81526001600160a01b0383166004820152602401610a7b565b60405163ec442f0560e01b81526001600160a01b0383166004820152602401610a7b565b5f336119bd8582856126a9565b6119c88585856116c6565b506001949350505050565b6119db61187c565b7f2ce8d04a9c35987429af538825cd2438cc5c5bb5dc427955f84daaa3ea105016610bb8816116bc565b6001600160a01b03811615801590611a8757506040516301ffc9a760e01b815263777dbf4d60e11b60048201526001600160a01b038216906301ffc9a790602401602060405180830381865afa158015611a61573d5f803e3d5ffd5b505050506040513d601f19601f82011682018060405250810190611a85919061374b565b155b15611aa55760405163340aafcd60e11b815260040160405180910390fd5b60cc546040516001600160a01b0383811692169033907ff30d5b081b4a3016a4b34d3732b94b2b2ccc2d99f6774c8ac47c42d8764fd265905f90a460cc80546001600160a01b0319166001600160a01b0392909216919091179055565b610d0c61187c565b5f82815261022a6020526040902060010154611b25816116bc565b610acf838361249f565b5f610bda61271b565b6001600160a01b0381163314611ba85760405162461bcd60e51b815260206004820152602f60248201527f416363657373436f6e74726f6c3a2063616e206f6e6c792072656e6f756e636560448201526e103937b632b9903337b91039b2b63360891b6064820152608401610a7b565b610bcd828261278e565b7f189ab7a9244df0848122154315af71fe140f3db0fe014031783b0946b8c9d2e3610bcd816116bc565b7f4910fdfa16fed3260ed0e7147f7cc6da11a60208b5b9406d12a635614ffd91435460ff1615611c0f57610acf836127f5565b826001600160a01b03166352d1902d6040518163ffffffff1660e01b8152600401602060405180830381865afa925050508015611c69575060408051601f3d908101601f19168201909252611c66918101906138b7565b60015b611ccc5760405162461bcd60e51b815260206004820152602e60248201527f45524331393637557067726164653a206e657720696d706c656d656e7461746960448201526d6f6e206973206e6f74205555505360901b6064820152608401610a7b565b5f80516020613b9f8339815191528114611d3a5760405162461bcd60e51b815260206004820152602960248201527f45524331393637557067726164653a20756e737570706f727465642070726f786044820152681a58589b195555525160ba1b6064820152608401610a7b565b50610acf838383612890565b5f336118d0818585611d58838361165e565b611d6291906138ce565b612586565b7f65d7a28e3265b37a6474929f336521b332c1681b933f6cb9f3376673440d862a610bb8816116bc565b611d996128b4565b610194805460ff191690557f5db9ee0a495bf2e6ff9c91a7834c1ba4fdd244a5e8aa4e537bd38aeae4b073aa335b6040516001600160a01b03909116815260200160405180910390a1565b6001600160a01b038216611e3a5760405162461bcd60e51b815260206004820152601f60248201527f45524332303a206d696e7420746f20746865207a65726f2061646472657373006044820152606401610a7b565b611e455f838361257e565b8060355f828254611e5691906138ce565b90915550506001600160a01b0382165f818152603360209081526040808320805486019055518481527fddf252ad1be2c89b69c2b068fc378daa952ba7f163c4a11628f55a4df523b3ef910160405180910390a35050565b6001600160a01b038216611f0e5760405162461bcd60e51b815260206004820152602160248201527f45524332303a206275726e2066726f6d20746865207a65726f206164647265736044820152607360f81b6064820152608401610a7b565b611f19825f8361257e565b6001600160a01b0382165f9081526033602052604090205481811015611f8c5760405162461bcd60e51b815260206004820152602260248201527f45524332303a206275726e20616d6f756e7420657863656564732062616c616e604482015261636560f01b6064820152608401610a7b565b6001600160a01b0383165f8181526033602090815260408083208686039055603580548790039055518581529192917fddf252ad1be2c89b69c2b068fc378daa952ba7f163c4a11628f55a4df523b3ef910160405180910390a3505050565b611ff361187c565b7f75afe8d9fedb4699bf07dc7bcb33fe609a84a99adfab7076931f0d93228085bb610bb8816116bc565b336001600160a01b03167fe41f7f53dffb3e1410dab0f9f6a27c670b48ad40ccc47a64537100e1f3809e8a6101628360405161205a9291906138e1565b60405180910390a2610162610bcd82826139c8565b61207761187c565b610194805460ff191660011790557f62e78cea01bee320cd4e420270b5ea74000d11b0c9f74754ebdbfc544b05a258611dc73390565b606060678054610ae39061376a565b606060688054610ae39061376a565b5f33816120d8828661165e565b9050838110156121385760405162461bcd60e51b815260206004820152602560248201527f45524332303a2064656372656173656420616c6c6f77616e63652062656c6f77604482015264207a65726f60d81b6064820152608401610a7b565b6119c88286868403612586565b5f336118d08185856116c6565b6060610b778383604051806060016040528060278152602001613bbf602791396128fe565b604080516001600160a01b038416602482015260448082018490528251808303909101815260649091019091526020810180516001600160e01b031663a9059cbb60e01b179052610acf908490612972565b834211156122195760405162461bcd60e51b815260206004820152601d60248201527f45524332305065726d69743a206578706972656420646561646c696e650000006044820152606401610a7b565b5f7f6e71edae12b1b97f4d1f60370fef10105fa2faae0126114a169c64845d6126c98888886122478c612a45565b6040805160208101969096526001600160a01b0394851690860152929091166060840152608083015260a082015260c0810186905260e0016040516020818303038152906040528051906020012090505f6122a182612a6c565b90505f6122b082878787612a98565b9050896001600160a01b0316816001600160a01b0316146123135760405162461bcd60e51b815260206004820152601e60248201527f45524332305065726d69743a20696e76616c6964207369676e617475726500006044820152606401610a7b565b61231e8a8a8a612586565b50505050505050505050565b5f82815261022a6020526040902060010154612345816116bc565b610acf838361278e565b5f54610100900460ff16610d0c5760405162461bcd60e51b8152600401610a7b90613a84565b5f54610100900460ff1661239b5760405162461bcd60e51b8152600401610a7b90613a84565b610bcd8282612abe565b5f54610100900460ff166123cb5760405162461bcd60e51b8152600401610a7b90613a84565b610bb881604051806040016040528060018152602001603160f81b815250612afd565b5f54610100900460ff16610baf5760405162461bcd60e51b8152600401610a7b90613a84565b5f54610100900460ff1661243a5760405162461bcd60e51b8152600401610a7b90613a84565b610bb88161201d565b5f54610100900460ff166124695760405162461bcd60e51b8152600401610a7b90613a84565b610d0c612b4a565b5f54610100900460ff166124975760405162461bcd60e51b8152600401610a7b90613a84565b610d0c61234f565b6124a982826110ee565b610bcd575f82815261022a602090815260408083206001600160a01b03851684529091529020805460ff191660011790556124e13390565b6001600160a01b0316816001600160a01b0316837f2f8788117e7eff1d82e926ec794901d17c78024a50270940304540a733656f0d60405160405180910390a45050565b61252f82826110ee565b610bcd5761253c81612b78565b612547836020612b8a565b604051602001612558929190613acf565b60408051601f198184030181529082905262461bcd60e51b8252610a7b91600401613259565b610acf61187c565b6001600160a01b0383166125e85760405162461bcd60e51b8152602060048201526024808201527f45524332303a20617070726f76652066726f6d20746865207a65726f206164646044820152637265737360e01b6064820152608401610a7b565b6001600160a01b0382166126495760405162461bcd60e51b815260206004820152602260248201527f45524332303a20617070726f766520746f20746865207a65726f206164647265604482015261737360f01b6064820152608401610a7b565b6001600160a01b038381165f8181526034602090815260408083209487168084529482529182902085905590518481527f8c5be1e5ebec7d5bd14f71427d1e84f3dd0314c0f7b2291e5b200ac8c7c3b925910160405180910390a3505050565b5f6126b4848461165e565b90505f198114611876578181101561270e5760405162461bcd60e51b815260206004820152601d60248201527f45524332303a20696e73756666696369656e7420616c6c6f77616e63650000006044820152606401610a7b565b6118768484848403612586565b5f7f8b73c3c69bb8fe3d512ecc4cf759cc79239f7b179b0ffacaa9a75d522b39400f612745612d20565b61274d612d78565b60408051602081019490945283019190915260608201524660808201523060a082015260c00160405160208183030381529060405280519060200120905090565b61279882826110ee565b15610bcd575f82815261022a602090815260408083206001600160a01b0385168085529252808320805460ff1916905551339285917ff6391f5c32d9c69d2a47ea670b442974b53935d1edc7fd64eb21e047a839171b9190a45050565b6001600160a01b0381163b6128625760405162461bcd60e51b815260206004820152602d60248201527f455243313936373a206e657720696d706c656d656e746174696f6e206973206e60448201526c1bdd08184818dbdb9d1c9858dd609a1b6064820152608401610a7b565b5f80516020613b9f83398151915280546001600160a01b0319166001600160a01b0392909216919091179055565b61289983612da8565b5f825111806128a55750805b15610acf576118768383612152565b6101945460ff16610d0c5760405162461bcd60e51b815260206004820152601460248201527314185d5cd8589b194e881b9bdd081c185d5cd95960621b6044820152606401610a7b565b60605f80856001600160a01b03168560405161291a9190613b43565b5f60405180830381855af49150503d805f8114612952576040519150601f19603f3d011682016040523d82523d5f602084013e612957565b606091505b509150915061296886838387612de7565b9695505050505050565b5f6129c6826040518060400160405280602081526020017f5361666545524332303a206c6f772d6c6576656c2063616c6c206661696c6564815250856001600160a01b0316612e5f9092919063ffffffff16565b905080515f14806129e65750808060200190518101906129e6919061374b565b610acf5760405162461bcd60e51b815260206004820152602a60248201527f5361666545524332303a204552433230206f7065726174696f6e20646964206e6044820152691bdd081cdd58d8d9595960b21b6064820152608401610a7b565b6001600160a01b0381165f9081526099602052604090208054600181018255905b50919050565b5f61096a612a78611b2f565b8360405161190160f01b8152600281019290925260228201526042902090565b5f805f612aa787878787612e6d565b91509150612ab481612f2a565b5095945050505050565b5f54610100900460ff16612ae45760405162461bcd60e51b8152600401610a7b90613a84565b6036612af083826139c8565b506037610acf82826139c8565b5f54610100900460ff16612b235760405162461bcd60e51b8152600401610a7b90613a84565b6067612b2f83826139c8565b506068612b3c82826139c8565b50505f606581905560665550565b5f54610100900460ff16612b705760405162461bcd60e51b8152600401610a7b90613a84565b610d0c613073565b606061096a6001600160a01b03831660145b60605f612b98836002613b5e565b612ba39060026138ce565b67ffffffffffffffff811115612bbb57612bbb613309565b6040519080825280601f01601f191660200182016040528015612be5576020820181803683370190505b509050600360fc1b815f81518110612bff57612bff613834565b60200101906001600160f81b03191690815f1a905350600f60fb1b81600181518110612c2d57612c2d613834565b60200101906001600160f81b03191690815f1a9053505f612c4f846002613b5e565b612c5a9060016138ce565b90505b6001811115612cd1576f181899199a1a9b1b9c1cb0b131b232b360811b85600f1660108110612c8e57612c8e613834565b1a60f81b828281518110612ca457612ca4613834565b60200101906001600160f81b03191690815f1a90535060049490941c93612cca81613b75565b9050612c5d565b508315610b775760405162461bcd60e51b815260206004820181905260248201527f537472696e67733a20686578206c656e67746820696e73756666696369656e746044820152606401610a7b565b5f80612d2a6120ad565b805190915015612d41578051602090910120919050565b6065548015612d505792915050565b7fc5d2460186f7233c927e7db2dcc703c0e500b653ca82273b7bfad8045d85a4709250505090565b5f80612d826120bc565b805190915015612d99578051602090910120919050565b6066548015612d505792915050565b612db1816127f5565b6040516001600160a01b038216907fbc7cd75a20ee27fd9adebab32041f755214dbc6bffa90cc0225b39da2e5c2d3b905f90a250565b60608315612e555782515f03612e4e576001600160a01b0385163b612e4e5760405162461bcd60e51b815260206004820152601d60248201527f416464726573733a2063616c6c20746f206e6f6e2d636f6e74726163740000006044820152606401610a7b565b5081610b9f565b610b9f83836130a6565b6060610b9f84845f856130d0565b5f807f7fffffffffffffffffffffffffffffff5d576e7357a4501ddfe92f46681b20a0831115612ea257505f90506003612f21565b604080515f8082526020820180845289905260ff881692820192909252606081018690526080810185905260019060a0016020604051602081039080840390855afa158015612ef3573d5f803e3d5ffd5b5050604051601f1901519150506001600160a01b038116612f1b575f60019250925050612f21565b91505f90505b94509492505050565b5f816004811115612f3d57612f3d613b8a565b03612f455750565b6001816004811115612f5957612f59613b8a565b03612fa65760405162461bcd60e51b815260206004820152601860248201527f45434453413a20696e76616c6964207369676e617475726500000000000000006044820152606401610a7b565b6002816004811115612fba57612fba613b8a565b036130075760405162461bcd60e51b815260206004820152601f60248201527f45434453413a20696e76616c6964207369676e6174757265206c656e677468006044820152606401610a7b565b600381600481111561301b5761301b613b8a565b03610bb85760405162461bcd60e51b815260206004820152602260248201527f45434453413a20696e76616c6964207369676e6174757265202773272076616c604482015261756560f01b6064820152608401610a7b565b5f54610100900460ff166130995760405162461bcd60e51b8152600401610a7b90613a84565b610194805460ff19169055565b8151156130b65781518083602001fd5b8060405162461bcd60e51b8152600401610a7b9190613259565b6060824710156131315760405162461bcd60e51b815260206004820152602660248201527f416464726573733a20696e73756666696369656e742062616c616e636520666f6044820152651c8818d85b1b60d21b6064820152608401610a7b565b5f80866001600160a01b0316858760405161314c9190613b43565b5f6040518083038185875af1925050503d805f8114613186576040519150601f19603f3d011682016040523d82523d5f602084013e61318b565b606091505b509150915061319c87838387612de7565b979650505050505050565b5f602082840312156131b7575f80fd5b81356001600160e01b031981168114610b77575f80fd5b6001600160a01b0381168114610bb8575f80fd5b5f80604083850312156131f3575f80fd5b82356131fe816131ce565b946020939093013593505050565b5f5b8381101561322657818101518382015260200161320e565b50505f910152565b5f815180845261324581602086016020860161320c565b601f01601f19169290920160200192915050565b602081525f610b77602083018461322e565b5f805f6060848603121561327d575f80fd5b8335613288816131ce565b92506020840135613298816131ce565b929592945050506040919091013590565b5f602082840312156132b9575f80fd5b5035919050565b5f602082840312156132d0575f80fd5b8135610b77816131ce565b5f80604083850312156132ec575f80fd5b8235915060208301356132fe816131ce565b809150509250929050565b634e487b7160e01b5f52604160045260245ffd5b5f806040838503121561332e575f80fd5b8235613339816131ce565b9150602083013567ffffffffffffffff80821115613355575f80fd5b818501915085601f830112613368575f80fd5b81358181111561337a5761337a613309565b604051601f8201601f19908116603f011681019083821181831017156133a2576133a2613309565b816040528281528860208487010111156133ba575f80fd5b826020860160208301375f6020848301015280955050505050509250929050565b5f8083601f8401126133eb575f80fd5b50813567ffffffffffffffff811115613402575f80fd5b602083019150836020828501011115613419575f80fd5b9250929050565b5f8060208385031215613431575f80fd5b823567ffffffffffffffff811115613447575f80fd5b613453858286016133db565b90969095509350505050565b60ff60f81b881681525f602060e08184015261347e60e084018a61322e565b8381036040850152613490818a61322e565b606085018990526001600160a01b038816608086015260a0850187905284810360c086015285518082528387019250908301905f5b818110156134e1578351835292840192918401916001016134c5565b50909c9b505050505050505050505050565b5f8060208385031215613504575f80fd5b823567ffffffffffffffff8082111561351b575f80fd5b818501915085601f83011261352e575f80fd5b81358181111561353c575f80fd5b8660208260051b8501011115613550575f80fd5b60209290920196919550909350505050565b5f602080830181845280855180835260408601915060408160051b87010192508387015f5b828110156135b557603f198886030184526135a385835161322e565b94509285019290850190600101613587565b5092979650505050505050565b5f805f805f805f60e0888a0312156135d8575f80fd5b87356135e3816131ce565b965060208801356135f3816131ce565b95506040880135945060608801359350608088013560ff81168114613616575f80fd5b9699959850939692959460a0840135945060c09093013592915050565b5f805f805f805f60a0888a031215613649575f80fd5b873567ffffffffffffffff80821115613660575f80fd5b61366c8b838c016133db565b909950975060208a0135915080821115613684575f80fd5b506136918a828b016133db565b90965094505060408801356136a5816131ce565b925060608801356136b5816131ce565b915060808801356136c5816131ce565b8091505092959891949750929550565b5f80604083850312156136e6575f80fd5b82356136f1816131ce565b915060208301356132fe816131ce565b6001600160a01b0385811682528416602082015260606040820181905281018290525f828460808401375f608084840101526080601f19601f850116830101905095945050505050565b5f6020828403121561375b575f80fd5b81518015158114610b77575f80fd5b600181811c9082168061377e57607f821691505b602082108103612a6657634e487b7160e01b5f52602260045260245ffd5b6020808252602c908201527f46756e6374696f6e206d7573742062652063616c6c6564207468726f7567682060408201526b19195b1959d85d1958d85b1b60a21b606082015260800190565b6020808252602c908201527f46756e6374696f6e206d7573742062652063616c6c6564207468726f7567682060408201526b6163746976652070726f787960a01b606082015260800190565b634e487b7160e01b5f52603260045260245ffd5b5f808335601e1984360301811261385d575f80fd5b83018035915067ffffffffffffffff821115613877575f80fd5b602001915036819003821315613419575f80fd5b634e487b7160e01b5f52601160045260245ffd5b5f600182016138b0576138b061388b565b5060010190565b5f602082840312156138c7575f80fd5b5051919050565b8082018082111561096a5761096a61388b565b604081525f8084546138f28161376a565b806040860152606060018084165f8114613913576001811461392d5761395b565b60ff1985168884015283151560051b88018301955061395b565b895f526020805f205f5b868110156139525781548b8201870152908401908201613937565b8a018501975050505b50505050508281036020840152613972818561322e565b95945050505050565b601f821115610acf575f81815260208120601f850160051c810160208610156139a15750805b601f850160051c820191505b818110156139c0578281556001016139ad565b505050505050565b815167ffffffffffffffff8111156139e2576139e2613309565b6139f6816139f0845461376a565b8461397b565b602080601f831160018114613a29575f8415613a125750858301515b5f19600386901b1c1916600185901b1785556139c0565b5f85815260208120601f198616915b82811015613a5757888601518255948401946001909101908401613a38565b5085821015613a7457878501515f19600388901b60f8161c191681555b5050505050600190811b01905550565b6020808252602b908201527f496e697469616c697a61626c653a20636f6e7472616374206973206e6f74206960408201526a6e697469616c697a696e6760a81b606082015260800190565b7f416363657373436f6e74726f6c3a206163636f756e742000000000000000000081525f8351613b0681601785016020880161320c565b7001034b99036b4b9b9b4b733903937b6329607d1b6017918401918201528351613b3781602884016020880161320c565b01602801949350505050565b5f8251613b5481846020870161320c565b9190910192915050565b808202811582820484141761096a5761096a61388b565b5f81613b8357613b8361388b565b505f190190565b634e487b7160e01b5f52602160045260245ffdfe360894a13ba1a3210667c828492db98dca3e2076cc3735a920a3ca505d382bbc416464726573733a206c6f772d6c6576656c2064656c65676174652063616c6c206661696c6564a2646970667358221220edac625166136e805bd55adb73ae179cd5b7475e339b1d4e2f8b4832462c838764736f6c63430008140033",
		"linkReferences": {}
	},
	"methodIdentifiers": {
		"BURNER_ROLE()": "282c51f3",
		"CONTRACT_ADMIN_ROLE()": "1da03312",
		"DEFAULT_ADMIN_ROLE()": "a217fddf",
		"DOMAIN_SEPARATOR()": "3644e515",
		"MINTER_ROLE()": "d5391393",
		"PAUSER_ROLE()": "e63ab1e9",
		"RECOVERY_ROLE()": "31993a1c",
		"SALVAGE_ROLE()": "88920d29",
		"UPGRADER_ROLE()": "f72c0d8b",
		"accessRegistry()": "e6f29b05",
		"accessRegistryUpdate(address)": "2e13ae6e",
		"allowance(address,address)": "dd62ed3e",
		"approve(address,uint256)": "095ea7b3",
		"balanceOf(address)": "70a08231",
		"burn(uint256)": "42966c68",
		"contractUri()": "c0e24d5e",
		"contractUriUpdate(string)": "7ffc5a5c",
		"decimals()": "313ce567",
		"decreaseAllowance(address,uint256)": "a457c2d7",
		"eip712Domain()": "84b0196e",
		"getRoleAdmin(bytes32)": "248a9ca3",
		"grantRole(bytes32,address)": "2f2ff15d",
		"hasRole(bytes32,address)": "91d14854",
		"increaseAllowance(address,uint256)": "39509351",
		"initialize(string,string,address,address,address)": "db0ed6a0",
		"mint(address,uint256)": "40c10f19",
		"multicall(bytes[])": "ac9650d8",
		"name()": "06fdde03",
		"nonces(address)": "7ecebe00",
		"pause()": "8456cb59",
		"paused()": "5c975abb",
		"permit(address,address,uint256,uint256,uint8,bytes32,bytes32)": "d505accf",
		"proxiableUUID()": "52d1902d",
		"recoverTokens(address,uint256)": "069c9fae",
		"renounceRole(bytes32,address)": "36568abe",
		"revokeRole(bytes32,address)": "d547741f",
		"salvageERC20(address,uint256)": "c3d00d4e",
		"salvageGas(uint256)": "6e1d21b0",
		"supportsInterface(bytes4)": "01ffc9a7",
		"symbol()": "95d89b41",
		"totalSupply()": "18160ddd",
		"transfer(address,uint256)": "a9059cbb",
		"transferFrom(address,address,uint256)": "23b872dd",
		"unpause()": "3f4ba83a",
		"upgradeTo(address)": "3659cfe6",
		"upgradeToAndCall(address,bytes)": "4f1ef286",
		"version()": "54fd4d50"
	},
	"id": 2
}